{
  "contractName": "PerpetualV1",
  "abi": [
    {
      "anonymous": false,
      "inputs": [
        {
          "indexed": true,
          "internalType": "address",
          "name": "account",
          "type": "address"
        },
        {
          "indexed": false,
          "internalType": "address",
          "name": "destination",
          "type": "address"
        },
        {
          "indexed": false,
          "internalType": "uint256",
          "name": "amount",
          "type": "uint256"
        }
      ],
      "name": "LogAccWithdrawRquest",
      "type": "event"
    },
    {
      "anonymous": false,
      "inputs": [
        {
          "indexed": true,
          "internalType": "address",
          "name": "account",
          "type": "address"
        },
        {
          "indexed": false,
          "internalType": "uint256",
          "name": "amount",
          "type": "uint256"
        },
        {
          "indexed": false,
          "internalType": "bytes32",
          "name": "balance",
          "type": "bytes32"
        }
      ],
      "name": "LogDeposit",
      "type": "event"
    },
    {
      "anonymous": false,
      "inputs": [
        {
          "indexed": false,
          "internalType": "address",
          "name": "operator",
          "type": "address"
        },
        {
          "indexed": false,
          "internalType": "bool",
          "name": "approved",
          "type": "bool"
        }
      ],
      "name": "LogSetGlobalOperator",
      "type": "event"
    },
    {
      "anonymous": false,
      "inputs": [
        {
          "indexed": true,
          "internalType": "address",
          "name": "sender",
          "type": "address"
        },
        {
          "indexed": false,
          "internalType": "address",
          "name": "operator",
          "type": "address"
        },
        {
          "indexed": false,
          "internalType": "bool",
          "name": "approved",
          "type": "bool"
        }
      ],
      "name": "LogSetLocalOperator",
      "type": "event"
    },
    {
      "anonymous": false,
      "inputs": [
        {
          "indexed": false,
          "internalType": "address",
          "name": "oracle",
          "type": "address"
        }
      ],
      "name": "LogSetOracle",
      "type": "event"
    },
    {
      "anonymous": false,
      "inputs": [
        {
          "indexed": false,
          "internalType": "address",
          "name": "token_address",
          "type": "address"
        }
      ],
      "name": "LogSetToken",
      "type": "event"
    },
    {
      "anonymous": false,
      "inputs": [
        {
          "indexed": false,
          "internalType": "string[]",
          "name": "token_symbol",
          "type": "string[]"
        }
      ],
      "name": "LogSetTokenSymbolInitial",
      "type": "event"
    },
    {
      "anonymous": false,
      "inputs": [
        {
          "indexed": true,
          "internalType": "address",
          "name": "maker",
          "type": "address"
        },
        {
          "indexed": true,
          "internalType": "address",
          "name": "taker",
          "type": "address"
        },
        {
          "indexed": false,
          "internalType": "address",
          "name": "trader",
          "type": "address"
        },
        {
          "indexed": false,
          "internalType": "string",
          "name": "symbol",
          "type": "string"
        },
        {
          "indexed": false,
          "internalType": "bytes32",
          "name": "makerBalance",
          "type": "bytes32"
        },
        {
          "indexed": false,
          "internalType": "bytes32",
          "name": "takerBalance",
          "type": "bytes32"
        },
        {
          "indexed": false,
          "internalType": "bytes32",
          "name": "funding_maker",
          "type": "bytes32"
        },
        {
          "indexed": false,
          "internalType": "bytes32",
          "name": "funding_taker",
          "type": "bytes32"
        },
        {
          "indexed": false,
          "internalType": "bytes32",
          "name": "fee_maker",
          "type": "bytes32"
        },
        {
          "indexed": false,
          "internalType": "bytes32",
          "name": "fee_taker",
          "type": "bytes32"
        },
        {
          "indexed": false,
          "internalType": "uint256",
          "name": "margin_change",
          "type": "uint256"
        },
        {
          "indexed": false,
          "internalType": "uint256",
          "name": "positionAmount",
          "type": "uint256"
        },
        {
          "indexed": false,
          "internalType": "bool",
          "name": "isBuy",
          "type": "bool"
        }
      ],
      "name": "LogTrade",
      "type": "event"
    },
    {
      "anonymous": false,
      "inputs": [
        {
          "indexed": true,
          "internalType": "address",
          "name": "account",
          "type": "address"
        },
        {
          "indexed": false,
          "internalType": "address",
          "name": "destination",
          "type": "address"
        },
        {
          "indexed": false,
          "internalType": "uint256",
          "name": "amount",
          "type": "uint256"
        },
        {
          "indexed": false,
          "internalType": "bytes32",
          "name": "balance",
          "type": "bytes32"
        }
      ],
      "name": "LogWithdraw",
      "type": "event"
    },
    {
      "inputs": [
        {
          "internalType": "address",
          "name": "account",
          "type": "address"
        },
        {
          "internalType": "uint256",
          "name": "amount",
          "type": "uint256"
        }
      ],
      "name": "deposit",
      "outputs": [],
      "stateMutability": "nonpayable",
      "type": "function"
    },
    {
      "inputs": [
        {
          "internalType": "address",
          "name": "account",
          "type": "address"
        },
        {
          "internalType": "string",
          "name": "symbol",
          "type": "string"
        }
      ],
      "name": "getAccountPosition",
      "outputs": [
        {
          "components": [
            {
              "internalType": "bool",
              "name": "positionIsPositive",
              "type": "bool"
            },
            {
              "internalType": "uint120",
              "name": "position",
              "type": "uint120"
            }
          ],
          "internalType": "struct P1Types.PositionStruct",
          "name": "",
          "type": "tuple"
        }
      ],
      "stateMutability": "view",
      "type": "function",
      "constant": true
    },
    {
      "inputs": [
        {
          "internalType": "address",
          "name": "account",
          "type": "address"
        }
      ],
      "name": "getAccountQvalue",
      "outputs": [
        {
          "components": [
            {
              "internalType": "bool",
              "name": "marginIsPositive",
              "type": "bool"
            },
            {
              "internalType": "uint120",
              "name": "margin",
              "type": "uint120"
            }
          ],
          "internalType": "struct P1Types.MarginStruct",
          "name": "",
          "type": "tuple"
        }
      ],
      "stateMutability": "view",
      "type": "function",
      "constant": true
    },
    {
      "inputs": [],
      "name": "getAdmin",
      "outputs": [
        {
          "internalType": "address",
          "name": "",
          "type": "address"
        }
      ],
      "stateMutability": "view",
      "type": "function",
      "constant": true
    },
    {
      "inputs": [
        {
          "internalType": "address",
          "name": "operator",
          "type": "address"
        }
      ],
      "name": "getIsGlobalOperator",
      "outputs": [
        {
          "internalType": "bool",
          "name": "",
          "type": "bool"
        }
      ],
      "stateMutability": "view",
      "type": "function",
      "constant": true
    },
    {
      "inputs": [
        {
          "internalType": "address",
          "name": "account",
          "type": "address"
        },
        {
          "internalType": "address",
          "name": "operator",
          "type": "address"
        }
      ],
      "name": "getIsLocalOperator",
      "outputs": [
        {
          "internalType": "bool",
          "name": "",
          "type": "bool"
        }
      ],
      "stateMutability": "view",
      "type": "function",
      "constant": true
    },
    {
      "inputs": [],
      "name": "getOracleContract",
      "outputs": [
        {
          "internalType": "address",
          "name": "",
          "type": "address"
        }
      ],
      "stateMutability": "view",
      "type": "function",
      "constant": true
    },
    {
      "inputs": [
        {
          "internalType": "string",
          "name": "symbol",
          "type": "string"
        }
      ],
      "name": "getOraclePrice",
      "outputs": [
        {
          "internalType": "uint256",
          "name": "",
          "type": "uint256"
        }
      ],
      "stateMutability": "view",
      "type": "function",
      "constant": true
    },
    {
      "inputs": [],
      "name": "getSymbolArray",
      "outputs": [
        {
          "internalType": "string[]",
          "name": "",
          "type": "string[]"
        }
      ],
      "stateMutability": "view",
      "type": "function",
      "constant": true
    },
    {
      "inputs": [],
      "name": "getTokenContract",
      "outputs": [
        {
          "internalType": "address",
          "name": "",
          "type": "address"
        }
      ],
      "stateMutability": "view",
      "type": "function",
      "constant": true
    },
    {
      "inputs": [
        {
          "internalType": "address",
          "name": "account",
          "type": "address"
        },
        {
          "internalType": "address",
          "name": "operator",
          "type": "address"
        }
      ],
      "name": "hasAccountPermissions",
      "outputs": [
        {
          "internalType": "bool",
          "name": "",
          "type": "bool"
        }
      ],
      "stateMutability": "view",
      "type": "function",
      "constant": true
    },
    {
      "inputs": [
        {
          "internalType": "address",
          "name": "operator",
          "type": "address"
        },
        {
          "internalType": "bool",
          "name": "approved",
          "type": "bool"
        }
      ],
      "name": "setGlobalOperator",
      "outputs": [],
      "stateMutability": "nonpayable",
      "type": "function"
    },
    {
      "inputs": [
        {
          "internalType": "address",
          "name": "operator",
          "type": "address"
        },
        {
          "internalType": "bool",
          "name": "approved",
          "type": "bool"
        }
      ],
      "name": "setLocalOperator",
      "outputs": [],
      "stateMutability": "nonpayable",
      "type": "function"
    },
    {
      "inputs": [
        {
          "internalType": "address",
          "name": "oracle",
          "type": "address"
        }
      ],
      "name": "setOracle",
      "outputs": [],
      "stateMutability": "nonpayable",
      "type": "function"
    },
    {
      "inputs": [
        {
          "internalType": "address",
          "name": "token_address",
          "type": "address"
        }
      ],
      "name": "setToken",
      "outputs": [],
      "stateMutability": "nonpayable",
      "type": "function"
    },
    {
      "inputs": [
        {
          "internalType": "string[]",
          "name": "symbol_array",
          "type": "string[]"
        }
      ],
      "name": "setTokenSymbolInitial",
      "outputs": [],
      "stateMutability": "nonpayable",
      "type": "function"
    },
    {
      "inputs": [
        {
          "internalType": "address[]",
          "name": "accounts",
          "type": "address[]"
        },
        {
          "components": [
            {
              "internalType": "uint256",
              "name": "takerIndex",
              "type": "uint256"
            },
            {
              "internalType": "uint256",
              "name": "makerIndex",
              "type": "uint256"
            },
            {
              "internalType": "string",
              "name": "symbol",
              "type": "string"
            },
            {
              "internalType": "address",
              "name": "trader",
              "type": "address"
            },
            {
              "internalType": "bytes",
              "name": "data",
              "type": "bytes"
            }
          ],
          "internalType": "struct P1Trade.TradeArg[]",
          "name": "trades",
          "type": "tuple[]"
        }
      ],
      "name": "trade",
      "outputs": [],
      "stateMutability": "nonpayable",
      "type": "function"
    },
    {
      "inputs": [
        {
          "internalType": "address",
          "name": "account",
          "type": "address"
        },
        {
          "components": [
            {
              "internalType": "uint256",
              "name": "value",
              "type": "uint256"
            },
            {
              "internalType": "bool",
              "name": "isPositive",
              "type": "bool"
            }
          ],
          "internalType": "struct SignedMath.Int",
          "name": "funding",
          "type": "tuple"
        },
        {
          "internalType": "address",
          "name": "destination",
          "type": "address"
        },
        {
          "internalType": "uint256",
          "name": "amount",
          "type": "uint256"
        }
      ],
      "name": "withdraw",
      "outputs": [],
      "stateMutability": "nonpayable",
      "type": "function"
    },
    {
      "inputs": [
        {
          "internalType": "address",
          "name": "account",
          "type": "address"
        },
        {
          "internalType": "address",
          "name": "destination",
          "type": "address"
        },
        {
          "internalType": "uint256",
          "name": "amount",
          "type": "uint256"
        }
      ],
      "name": "withdraw_apply",
      "outputs": [],
      "stateMutability": "nonpayable",
      "type": "function"
    },
    {
      "inputs": [
        {
          "internalType": "address",
          "name": "token",
          "type": "address"
        },
        {
          "internalType": "address",
          "name": "oracle",
          "type": "address"
        }
      ],
      "name": "initializeV1",
      "outputs": [],
      "stateMutability": "nonpayable",
      "type": "function"
    }
  ],
  "bytecode": "0x608060405234801561001057600080fd5b50613483806100206000396000f3fe608060405234801561001057600080fd5b506004361061016c5760003560e01c80637adbf973116100cd5780639cd0e3aa11610081578063b4959e7211610066578063b4959e7214610355578063e3bbb56514610368578063f5a908f01461037957600080fd5b80639cd0e3aa146102d4578063a3dcc98c1461034257600080fd5b80637ea351f0116100b25780637ea351f0146102995780638052887e146102ac57806384ea2862146102c157600080fd5b80637adbf973146102665780637c1219251461027957600080fd5b806346d256c51161012457806355f798581161010957806355f79858146102385780636e9960c31461024b57806375d4a1331461025357600080fd5b806346d256c51461021257806347e7ef241461022557600080fd5b8063144fa6d711610155578063144fa6d7146101c757806328b7bede146101da5780633a031bf0146101ff57600080fd5b8063052f72d71461017157806313055936146101b2575b600080fd5b61019d61017f36600461282a565b6001600160a01b031660009081526003602052604090205460ff1690565b60405190151581526020015b60405180910390f35b6101c56101c0366004612845565b61039a565b005b6101c56101d536600461282a565b61055f565b6005546001600160a01b03165b6040516001600160a01b0390911681526020016101a9565b61019d61020d366004612845565b610707565b6101c5610220366004612886565b610737565b6101c56102333660046128bd565b610862565b6101c56102463660046128e7565b61094d565b6101e7610b0e565b6101c561026136600461295c565b610b3d565b6101c561027436600461282a565b610cf3565b61028c6102873660046129fc565b611002565b6040516101a99190612a4f565b6101c56102a7366004612a79565b611087565b6102b46111ad565b6040516101a99190612b0d565b61019d6102cf366004612845565b611286565b61028c6102e236600461282a565b60408051808201825260008082526020918201819052825180840184526001600160a01b039490941680825260028084529382205460ff81161515865291529181526101009091046effffffffffffffffffffffffffffff169082015290565b6101c5610350366004612e01565b6112f5565b6101c5610363366004612886565b611642565b6006546001600160a01b03166101e7565b61038c610387366004612ec1565b6116b2565b6040519081526020016101a9565b6103a2610b0e565b6001600160a01b0316336001600160a01b0316146104075760405162461bcd60e51b815260206004820152601e60248201527f41646d696e61626c653a2063616c6c6572206973206e6f742061646d696e000060448201526064015b60405180910390fd5b600019600054141561045b5760405162461bcd60e51b815260206004820152601f60248201527f5265656e7472616e637947756172643a207265656e7472616e742063616c6c0060448201526064016103fe565b60001960005561049361048f60017fde8dcb0f1d5785b367cec7041f5f0e8b02e6f60b9cadc2ca1d77c1c4f47a453d612f32565b5490565b156104e05760405162461bcd60e51b815260206004820152601f60248201527f50657270657475616c563120616c726561647920696e697469616c697a65640060448201526064016103fe565b61051461050e60017fde8dcb0f1d5785b367cec7041f5f0e8b02e6f60b9cadc2ca1d77c1c4f47a453d612f32565b60019055565b600580546001600160a01b039384167fffffffffffffffffffffffff000000000000000000000000000000000000000091821617909155600680549290931691161790556001600055565b610567610b0e565b6001600160a01b0316336001600160a01b0316146105c75760405162461bcd60e51b815260206004820152601e60248201527f41646d696e61626c653a2063616c6c6572206973206e6f742061646d696e000060448201526064016103fe565b600019600054141561061b5760405162461bcd60e51b815260206004820152601f60248201527f5265656e7472616e637947756172643a207265656e7472616e742063616c6c0060448201526064016103fe565b600019600081905550806001600160a01b03166318160ddd6040518163ffffffff1660e01b815260040160206040518083038186803b15801561065d57600080fd5b505afa158015610671573d6000803e3d6000fd5b505050506040513d601f19601f820116820180604052508101906106959190612f49565b50600580547fffffffffffffffffffffffff0000000000000000000000000000000000000000166001600160a01b0383169081179091556040519081527f5b5f639eae4eb0789b53a218b67fe7238987c2ae8e6669f57eb56b267d025d7e9060200160405180910390a1506001600055565b6001600160a01b0380831660009081526004602090815260408083209385168352929052205460ff165b92915050565b61073f610b0e565b6001600160a01b0316336001600160a01b03161461079f5760405162461bcd60e51b815260206004820152601e60248201527f41646d696e61626c653a2063616c6c6572206973206e6f742061646d696e000060448201526064016103fe565b60001960005414156107f35760405162461bcd60e51b815260206004820152601f60248201527f5265656e7472616e637947756172643a207265656e7472616e742063616c6c0060448201526064016103fe565b60001960009081556001600160a01b03831680825260036020908152604092839020805460ff19168515159081179091558351928352908201527feaeee7699e70e6b31ac89ec999ef6936b97ac1e364f0e1fcf584772372caa0d391015b60405180910390a150506001600055565b60001960005414156108b65760405162461bcd60e51b815260206004820152601f60248201527f5265656e7472616e637947756172643a207265656e7472616e742063616c6c0060448201526064016103fe565b6000196000556005546108d4906001600160a01b03163330846117d2565b6108de8282611889565b816001600160a01b03167f40a9cb3a9707d3a68091d8ef7ffd4158d01d0b2ad92b1e489abe8312dd5430238261092c856040518060400160405280600081526020016000151581525061190f565b6040805192835260208301919091520160405180910390a250506001600055565b610955610b0e565b6001600160a01b0316336001600160a01b0316146109b55760405162461bcd60e51b815260206004820152601e60248201527f41646d696e61626c653a2063616c6c6572206973206e6f742061646d696e000060448201526064016103fe565b6000196000541415610a095760405162461bcd60e51b815260206004820152601f60248201527f5265656e7472616e637947756172643a207265656e7472616e742063616c6c0060448201526064016103fe565b6000196000558067ffffffffffffffff811115610a2857610a28612b8d565b604051908082528060200260200182016040528015610a5b57816020015b6060815260200190600190039081610a465790505b508051610a7091600191602090910190612657565b5060005b81811015610add57828282818110610a8e57610a8e612f62565b9050602002810190610aa09190612f91565b60018381548110610ab357610ab3612f62565b906000526020600020019190610aca9291906126b0565b5080610ad581612ff6565b915050610a74565b507f53a77d496dab9b3c73c8fc49e1f42cfb6ea0a6a78f78873d774bcc5d8c339e1a60016040516108519190613065565b6000610b387fb53127684a568b3173ae13b9f8a6016e243e63b6e8ee1178d6a717850b5d61035490565b919050565b6000196000541415610b915760405162461bcd60e51b815260206004820152601f60248201527f5265656e7472616e637947756172643a207265656e7472616e742063616c6c0060448201526064016103fe565b60001960009081553381526003602052604090205460ff16610c1b5760405162461bcd60e51b815260206004820152602a60248201527f7769746864726177206d73672073656e646572206973206e6f7420676c6f626160448201527f6c206f70657261746f720000000000000000000000000000000000000000000060648201526084016103fe565b600554610c32906001600160a01b031683836119d1565b6000610c4d82610c473687900387018761318c565b90611a1a565b9050806020015115610c6c57610c67858260000151611889565b610c7a565b610c7a858260000151611acf565b6001600160a01b0385167f74348e8cb927b5536fe550310d0cdf05914498fcb04ad61b99c29e3899b0bce98484610cbf89610cba368b90038b018b61318c565b61190f565b604080516001600160a01b03909416845260208401929092529082015260600160405180910390a250506001600055505050565b610cfb610b0e565b6001600160a01b0316336001600160a01b031614610d5b5760405162461bcd60e51b815260206004820152601e60248201527f41646d696e61626c653a2063616c6c6572206973206e6f742061646d696e000060448201526064016103fe565b6000196000541415610daf5760405162461bcd60e51b815260206004820152601f60248201527f5265656e7472616e637947756172643a207265656e7472616e742063616c6c0060448201526064016103fe565b6000196000908155600154905b8163ffffffff168163ffffffff161015610f9b57600060018263ffffffff1681548110610deb57610deb612f62565b906000526020600020018054610e0090613011565b80601f0160208091040260200160405190810160405280929190818152602001828054610e2c90613011565b8015610e795780601f10610e4e57610100808354040283529160200191610e79565b820191906000526020600020905b815481529060010190602001808311610e5c57829003601f168201915b50506040517f524f3889000000000000000000000000000000000000000000000000000000008152939450506001600160a01b0387169263524f38899250610ec6915084906004016131e2565b60206040518083038186803b158015610ede57600080fd5b505afa158015610ef2573d6000803e3d6000fd5b505050506040513d601f19601f82011682018060405250810190610f169190612f49565b610f885760405162461bcd60e51b815260206004820152602560248201527f4e6577206f7261636c652063616e6e6f742072657475726e2061207a65726f2060448201527f707269636500000000000000000000000000000000000000000000000000000060648201526084016103fe565b5080610f93816131f5565b915050610dbc565b50600680547fffffffffffffffffffffffff0000000000000000000000000000000000000000166001600160a01b0384169081179091556040519081527fad675642c3cba5442815383698d42cd28889533d9671a6d32cffea58ef0874da90602001610851565b604080518082018252600080825260208083018290526001600160a01b03871682526002905282902091519091600101906110409085908590613219565b908152604080519182900360209081018320838301909252905460ff8116151583526effffffffffffffffffffffffffffff610100909104169082015290505b9392505050565b60001960005414156110db5760405162461bcd60e51b815260206004820152601f60248201527f5265656e7472616e637947756172643a207265656e7472616e742063616c6c0060448201526064016103fe565b6000196000556110eb8333611286565b61115d5760405162461bcd60e51b815260206004820152603a60248201527f77697468647261775f6170706c792073656e64657220646f6573206e6f74206860448201527f617665207065726d697373696f6e20746f20776974686472617700000000000060648201526084016103fe565b604080516001600160a01b038481168252602082018490528516917f9574c1ef35e321a7e35ca6d172ee542b6057aee4e09679eda715e482de9a1bba910160405180910390a25050600160005550565b60606001805480602002602001604051908101604052809291908181526020016000905b8282101561127d5783829060005260206000200180546111f090613011565b80601f016020809104026020016040519081016040528092919081815260200182805461121c90613011565b80156112695780601f1061123e57610100808354040283529160200191611269565b820191906000526020600020905b81548152906001019060200180831161124c57829003601f168201915b5050505050815260200190600101906111d1565b50505050905090565b6000816001600160a01b0316836001600160a01b031614806112c057506001600160a01b03821660009081526003602052604090205460ff165b806110805750506001600160a01b03918216600090815260046020908152604080832093909416825291909152205460ff1690565b60001960005414156113495760405162461bcd60e51b815260206004820152601f60248201527f5265656e7472616e637947756172643a207265656e7472616e742063616c6c0060448201526064016103fe565b60001960009081553381526003602052604090205460ff166113d35760405162461bcd60e51b815260206004820152603160248201527f66756e6374696f6e2074726164653a206d73672e73656e646572206973206e6f60448201527f7420676c6f62616c206f70657261746f7200000000000000000000000000000060648201526084016103fe565b6113dc82611b44565b60005b81518110156116385760008282815181106113fc576113fc612f62565b60209081029190910181015160608101516001600160a01b03166000908152600390925260409091205490915060ff166114785760405162461bcd60e51b815260206004820152601d60248201527f747261646572206973206e6f7420676c6f62616c206f70657261746f7200000060448201526064016103fe565b60008482602001518151811061149057611490612f62565b602002602001015190506000858360000151815181106114b2576114b2612f62565b60200260200101519050600083606001516001600160a01b031663e7a08801848487608001516040518463ffffffff1660e01b81526004016114f693929190613229565b61016060405180830381600087803b15801561151157600080fd5b505af1158015611525573d6000803e3d6000fd5b505050506040513d601f19601f8201168201806040525081019061154991906132c5565b905060008061155e8585858960400151611ca3565b91509150836001600160a01b0316856001600160a01b03167fe36d4ed0c612b8b6a37918181fe1f97714e2795e8be89b92d25da1801462d206886060015189604001516115af8a8c60400151611e83565b6115bd8a8d60400151611e83565b6115ca8a60400151611fb5565b6115d78b60600151611fb5565b8b516115e3908c611ff5565b6115f18d602001518c611ff5565b8d60a001518e608001518f60e001516040516116179b9a99989796959493929190613360565b60405180910390a3505050505050808061163090612ff6565b9150506113df565b5050600160005550565b3360008181526004602090815260408083206001600160a01b03871680855290835292819020805460ff19168615159081179091558151938452918301919091527ffe9fa8ad7dbd5e50cbcd1a903ea64717cb80b02e6b737e74f7e2f070b3e4d15f910160405180910390a25050565b3360009081526003602052604081205460ff166117375760405162461bcd60e51b815260206004820152602a60248201527f4f7261636c6520707269636520726571756573746572206e6f7420676c6f626160448201527f6c206f70657261746f720000000000000000000000000000000000000000000060648201526084016103fe565b6006546040517f524f38890000000000000000000000000000000000000000000000000000000081526001600160a01b039091169063524f38899061178290869086906004016133cd565b60206040518083038186803b15801561179a57600080fd5b505afa1580156117ae573d6000803e3d6000fd5b505050506040513d601f19601f820116820180604052508101906110809190612f49565b6040516001600160a01b03808516602483015283166044820152606481018290526118839085907f23b872dd00000000000000000000000000000000000000000000000000000000906084015b60408051601f198184030181529190526020810180517bffffffffffffffffffffffffffffffffffffffffffffffffffffffff167fffffffff0000000000000000000000000000000000000000000000000000000090931692909217909152612030565b50505050565b60006118f2836040805180820190915260008082526020820152506040805180820182526001600160a01b03909216600081815260026020818152938220546effffffffffffffffffffffffffffff610100820416865292909152825260ff1615159082015290565b90506118fe8183612115565b905061190a8382612198565b505050565b6000808260200151611922576000611934565b6f010000000000000000000000000000005b6001600160a01b03851660009081526002602052604090205460ff1661195b57600061197d565b7f01000000000000000000000000000000000000000000000000000000000000005b6001600160a01b03861660009081526002602052604090205485517effffffffffffffffffffffffffffff0000000000000000000000000000000061010090920460801b9190911617171791505092915050565b6040516001600160a01b03831660248201526044810182905261190a9084907fa9059cbb000000000000000000000000000000000000000000000000000000009060640161181f565b60408051808201909152600080825260208201528260200151611a6a576040518060400160405280611a5985600001518561221590919063ffffffff16565b815260006020909101529050610731565b8251821015611a9c576040805180820190915283518190611a8b9085612221565b815260016020909101529050610731565b6040518060400160405280611abe85600001518561222190919063ffffffff16565b815260006020909101529392505050565b6000611b38836040805180820190915260008082526020820152506040805180820182526001600160a01b03909216600081815260026020818152938220546effffffffffffffffffffffffffffff610100820416865292909152825260ff1615159082015290565b90506118fe8183611a1a565b6000815111611bbb5760405162461bcd60e51b815260206004820152602260248201527f4163636f756e7473206d7573742068617665206e6f6e2d7a65726f206c656e6760448201527f746800000000000000000000000000000000000000000000000000000000000060648201526084016103fe565b600081600081518110611bd057611bd0612f62565b602002602001015190506000600190505b825181101561190a576000838281518110611bfe57611bfe612f62565b60200260200101519050826001600160a01b0316816001600160a01b031611611c8f5760405162461bcd60e51b815260206004820152602260248201527f4163636f756e7473206d75737420626520736f7274656420616e6420756e697160448201527f756500000000000000000000000000000000000000000000000000000000000060648201526084016103fe565b915080611c9b81612ff6565b915050611be1565b6040820151606083015160009182916001600160a01b0387811690891614611d66578560e0015115611d1d5760a0860151611cdf908290611a1a565b9050611cf88660a001518361211590919063ffffffff16565b9150611d098887608001518761222d565b611d1887876080015187612252565b611d66565b60a0860151611d2d908290612115565b9050611d468660a0015183611a1a90919063ffffffff16565b9150611d5788876080015187612252565b611d668787608001518761222d565b600080611d7a886101000151600116151590565b15611dcf576020880151611d8f908490611a1a565b9250600090508760c0015115611db7578751611dac908590612115565b935060019150611e1e565b8751611dc4908590611a1a565b935060009150611e1e565b8751611ddc908590611a1a565b9350600091508760c0015115611e07576020880151611dfc908490612115565b925060019050611e1e565b6020880151611e17908490611a1a565b9250600090505b836020015115611e3b57611e368a8560000151611889565b611e49565b611e498a8560000151611acf565b826020015115611e6657611e61898460000151611889565b611e74565b611e74898460000151611acf565b90999098509650505050505050565b6001600160a01b0382166000908152600260205260408082209051829160010190611eaf9085906133fc565b9081526040519081900360200190205460ff16611ecd576000611edf565b6f010000000000000000000000000000005b6001600160a01b03851660009081526002602052604090205460ff16611f06576000611f28565b7f01000000000000000000000000000000000000000000000000000000000000005b6001600160a01b038616600090815260026020526040908190208054915161010090920460801b7effffffffffffffffffffffffffffff000000000000000000000000000000001691600190910190611f829088906133fc565b908152604051908190036020019020546effffffffffffffffffffffffffffff6101009091041617171791505092915050565b6000808260200151611fc8576000611fea565b7f01000000000000000000000000000000000000000000000000000000000000005b925190921792915050565b60008082612023577f0100000000000000000000000000000000000000000000000000000000000000612026565b60005b9093179392505050565b6000612085826040518060400160405280602081526020017f5361666545524332303a206c6f772d6c6576656c2063616c6c206661696c6564815250856001600160a01b031661226a9092919063ffffffff16565b80519091501561190a57808060200190518101906120a39190613418565b61190a5760405162461bcd60e51b815260206004820152602a60248201527f5361666545524332303a204552433230206f7065726174696f6e20646964206e60448201527f6f7420737563636565640000000000000000000000000000000000000000000060648201526084016103fe565b6040805180820190915260008082526020820152826020015115612155576040518060400160405280611a8b85600001518561221590919063ffffffff16565b8251821115612180576040518060400160405280611a8b85600001518561222190919063ffffffff16565b6040805180820190915283518190611abe9085612221565b80516121a390612281565b6001600160a01b03929092166000908152600260209081526040909120805492909101517fffffffffffffffffffffffffffffffff000000000000000000000000000000009092166101006effffffffffffffffffffffffffffff9094169390930260ff191692909217901515179055565b60006110808284613435565b60006110808284612f32565b6000612239848361230c565b90506122458184611a1a565b90506118838482846123f9565b600061225e848361230c565b90506122458184612115565b606061227984846000856124df565b949350505050565b60006f0100000000000000000000000000000082106123085760405162461bcd60e51b815260206004820152602760248201527f53616665436173743a2076616c756520646f65736e27742066697420696e203160448201527f323020626974730000000000000000000000000000000000000000000000000060648201526084016103fe565b5090565b6040805180820190915260008082526020820152604051806040016040528060026000866001600160a01b03166001600160a01b031681526020019081526020016000206001018460405161236191906133fc565b908152602001604051809103902060000160019054906101000a90046effffffffffffffffffffffffffffff166effffffffffffffffffffffffffffff16815260200160026000866001600160a01b03166001600160a01b03168152602001908152602001600020600101846040516123da91906133fc565b9081526040519081900360200190205460ff1615159052905092915050565b815161240490612281565b60026000856001600160a01b03166001600160a01b031681526020019081526020016000206001018260405161243a91906133fc565b90815260408051918290036020908101832080546effffffffffffffffffffffffffffff95909516610100027fffffffffffffffffffffffffffffffff000000000000000000000000000000ff90951694909417909355848301516001600160a01b038716600090815260029094529220600101906124ba9084906133fc565b908152604051908190036020019020805491151560ff19909216919091179055505050565b6060824710156125575760405162461bcd60e51b815260206004820152602660248201527f416464726573733a20696e73756666696369656e742062616c616e636520666f60448201527f722063616c6c000000000000000000000000000000000000000000000000000060648201526084016103fe565b843b6125a55760405162461bcd60e51b815260206004820152601d60248201527f416464726573733a2063616c6c20746f206e6f6e2d636f6e747261637400000060448201526064016103fe565b600080866001600160a01b031685876040516125c191906133fc565b60006040518083038185875af1925050503d80600081146125fe576040519150601f19603f3d011682016040523d82523d6000602084013e612603565b606091505b509150915061261382828661261e565b979650505050505050565b6060831561262d575081611080565b82511561263d5782518084602001fd5b8160405162461bcd60e51b81526004016103fe91906131e2565b8280548282559060005260206000209081019282156126a4579160200282015b828111156126a45782518051612694918491602090910190612730565b5091602001919060010190612677565b506123089291506127a4565b8280546126bc90613011565b90600052602060002090601f0160209004810192826126de5760008555612724565b82601f106126f75782800160ff19823516178555612724565b82800160010185558215612724579182015b82811115612724578235825591602001919060010190612709565b506123089291506127c1565b82805461273c90613011565b90600052602060002090601f01602090048101928261275e5760008555612724565b82601f1061277757805160ff1916838001178555612724565b82800160010185558215612724579182015b82811115612724578251825591602001919060010190612789565b808211156123085760006127b882826127d6565b506001016127a4565b5b8082111561230857600081556001016127c2565b5080546127e290613011565b6000825580601f106127f2575050565b601f01602090049060005260206000209081019061281091906127c1565b50565b80356001600160a01b0381168114610b3857600080fd5b60006020828403121561283c57600080fd5b61108082612813565b6000806040838503121561285857600080fd5b61286183612813565b915061286f60208401612813565b90509250929050565b801515811461281057600080fd5b6000806040838503121561289957600080fd5b6128a283612813565b915060208301356128b281612878565b809150509250929050565b600080604083850312156128d057600080fd5b6128d983612813565b946020939093013593505050565b600080602083850312156128fa57600080fd5b823567ffffffffffffffff8082111561291257600080fd5b818501915085601f83011261292657600080fd5b81358181111561293557600080fd5b8660208260051b850101111561294a57600080fd5b60209290920196919550909350505050565b60008060008084860360a081121561297357600080fd5b61297c86612813565b94506040601f198201121561299057600080fd5b506020850192506129a360608601612813565b9396929550929360800135925050565b60008083601f8401126129c557600080fd5b50813567ffffffffffffffff8111156129dd57600080fd5b6020830191508360208285010111156129f557600080fd5b9250929050565b600080600060408486031215612a1157600080fd5b612a1a84612813565b9250602084013567ffffffffffffffff811115612a3657600080fd5b612a42868287016129b3565b9497909650939450505050565b8151151581526020808301516effffffffffffffffffffffffffffff169082015260408101610731565b600080600060608486031215612a8e57600080fd5b612a9784612813565b9250612aa560208501612813565b9150604084013590509250925092565b60005b83811015612ad0578181015183820152602001612ab8565b838111156118835750506000910152565b60008151808452612af9816020860160208601612ab5565b601f01601f19169290920160200192915050565b6000602080830181845280855180835260408601915060408160051b870101925083870160005b82811015612b80577fffffffffffffffffffffffffffffffffffffffffffffffffffffffffffffffc0888603018452612b6e858351612ae1565b94509285019290850190600101612b34565b5092979650505050505050565b7f4e487b7100000000000000000000000000000000000000000000000000000000600052604160045260246000fd5b60405160a0810167ffffffffffffffff81118282101715612bdf57612bdf612b8d565b60405290565b604051610120810167ffffffffffffffff81118282101715612bdf57612bdf612b8d565b604051601f8201601f1916810167ffffffffffffffff81118282101715612c3257612c32612b8d565b604052919050565b600067ffffffffffffffff821115612c5457612c54612b8d565b5060051b60200190565b600067ffffffffffffffff831115612c7857612c78612b8d565b612c8b6020601f19601f86011601612c09565b9050828152838383011115612c9f57600080fd5b828260208301376000602084830101529392505050565b600082601f830112612cc757600080fd5b61108083833560208501612c5e565b600082601f830112612ce757600080fd5b81356020612cfc612cf783612c3a565b612c09565b82815260059290921b84018101918181019086841115612d1b57600080fd5b8286015b84811015612df657803567ffffffffffffffff80821115612d405760008081fd5b818901915060a080601f19848d03011215612d5b5760008081fd5b612d63612bbc565b8784013581526040808501358983015260608086013585811115612d875760008081fd5b8601603f81018f13612d995760008081fd5b612da98f8c830135858401612c5e565b838501525060809150612dbd828701612813565b90830152918401359183831115612dd45760008081fd5b612de28d8a85880101612cb6565b908201528652505050918301918301612d1f565b509695505050505050565b60008060408385031215612e1457600080fd5b823567ffffffffffffffff80821115612e2c57600080fd5b818501915085601f830112612e4057600080fd5b81356020612e50612cf783612c3a565b82815260059290921b84018101918181019089841115612e6f57600080fd5b948201945b83861015612e9457612e8586612813565b82529482019490820190612e74565b96505086013592505080821115612eaa57600080fd5b50612eb785828601612cd6565b9150509250929050565b60008060208385031215612ed457600080fd5b823567ffffffffffffffff811115612eeb57600080fd5b612ef7858286016129b3565b90969095509350505050565b7f4e487b7100000000000000000000000000000000000000000000000000000000600052601160045260246000fd5b600082821015612f4457612f44612f03565b500390565b600060208284031215612f5b57600080fd5b5051919050565b7f4e487b7100000000000000000000000000000000000000000000000000000000600052603260045260246000fd5b60008083357fffffffffffffffffffffffffffffffffffffffffffffffffffffffffffffffe1843603018112612fc657600080fd5b83018035915067ffffffffffffffff821115612fe157600080fd5b6020019150368190038213156129f557600080fd5b600060001982141561300a5761300a612f03565b5060010190565b600181811c9082168061302557607f821691505b6020821081141561305f577f4e487b7100000000000000000000000000000000000000000000000000000000600052602260045260246000fd5b50919050565b6000602080830181845280855480835260408601915060408160051b87010192506000878152848120815b8381101561317e578886037fffffffffffffffffffffffffffffffffffffffffffffffffffffffffffffffc001855281548390600181811c90808316806130d857607f831692505b8b831081141561310f577f4e487b710000000000000000000000000000000000000000000000000000000088526022600452602488fd5b828b5260208b0181801561312a576001811461313b57613165565b60ff19861682528d82019650613165565b6000898152602090208a5b8681101561315f57815484820152908501908f01613146565b83019750505b50949a5050978a01979490940193505050600101613090565b509398975050505050505050565b60006040828403121561319e57600080fd5b6040516040810181811067ffffffffffffffff821117156131c1576131c1612b8d565b6040528235815260208301356131d681612878565b60208201529392505050565b6020815260006110806020830184612ae1565b600063ffffffff8083168181141561320f5761320f612f03565b6001019392505050565b8183823760009101908152919050565b60006001600160a01b038086168352808516602084015250606060408301526132556060830184612ae1565b95945050505050565b8051610b3881612878565b60006040828403121561327b57600080fd5b6040516040810181811067ffffffffffffffff8211171561329e5761329e612b8d565b80604052508091508251815260208301516132b881612878565b6020919091015292915050565b600061016082840312156132d857600080fd5b6132e0612be5565b82518152602083015160208201526132fb8460408501613269565b604082015261330d8460808501613269565b606082015260c0830151608082015260e083015160a082015261010061333481850161325e565b60c0830152613346610120850161325e565b60e083015261014084015181830152508091505092915050565b60006101606001600160a01b038e1683528060208401526133838184018e612ae1565b604084019c909c5250506060810198909852608088019690965260a087019490945260c086019290925260e085015261010084015261012083015215156101409091015292915050565b60208152816020820152818360408301376000818301604090810191909152601f909201601f19160101919050565b6000825161340e818460208701612ab5565b9190910192915050565b60006020828403121561342a57600080fd5b815161108081612878565b6000821982111561344857613448612f03565b50019056fea2646970667358221220f9747d084473d2c420fa90420a8efe7cc7083b33bdcdb5a35e4fd007ca28fc7964736f6c63430008090033",
  "immutableReferences": {},
  "source": "/*\n\n    Copyright\n\n    Licensed under the Apache License, Version 2.0 (the \"License\");\n    you may not use this file except in compliance with the License.\n    You may obtain a copy of the License at\n\n    http://www.apache.org/licenses/LICENSE-2.0\n\n    Unless required by applicable law or agreed to in writing, software\n    distributed under the License is distributed on an \"AS IS\" BASIS,\n    WITHOUT WARRANTIES OR CONDITIONS OF ANY KIND, either express or implied.\n    See the License for the specific language governing permissions and\n    limitations under the License.\n\n*/\n\n// SPDX-License-Identifier: MIT\npragma solidity 0.8.9;\npragma abicoder v2;\n\nimport { Storage } from \"../lib/Storage.sol\";\nimport { P1Admin } from \"./impl/P1Admin.sol\";\nimport { P1Settlement } from \"./impl/P1Settlement.sol\";\nimport { P1Getters } from \"./impl/P1Getters.sol\";\nimport { P1Margin } from \"./impl/P1Margin.sol\";\nimport { P1Operator } from \"./impl/P1Operator.sol\";\nimport { P1Trade } from \"./impl/P1Trade.sol\";\n\n\n/**\n * @title PerpetualV1\n * @author  \n *\n * @notice A market for a perpetual contract, a financial derivative which may be traded on margin\n *  and which aims to closely track the spot price of an underlying asset. The underlying asset is\n *  specified via the price oracle which reports its spot price. Tethering of the perpetual market\n *  price is supported by a funding oracle which governs funding payments between longs and shorts.\n * @dev Main perpetual market implementation contract that inherits from other contracts.\n */\ncontract PerpetualV1 is\n    P1Settlement,\n    P1Admin,\n    P1Getters,\n    P1Margin,\n    P1Operator,\n    P1Trade\n{\n    // Non-colliding storage slot.\n    bytes32 internal constant PERPETUAL_V1_INITIALIZE_SLOT =\n    bytes32(uint256(keccak256(\" .PerpetualV1.initialize\")) - 1);\n\n    /**\n     * @dev Once-only initializer function that replaces the constructor since this contract is\n     *  proxied. Uses a non-colliding storage slot to store if this version has been initialized.\n     * @dev Can only be called once and can only be called by the admin of this contract.\n     *\n     * @param  token          The address of the token to use for margin-deposits.\n     * @param  oracle         The address of the price oracle contract.\n     */\n    function initializeV1(\n        address token,\n        address oracle\n    )\n        external\n        onlyAdmin\n        nonReentrant\n    {\n        // only allow initialization once\n        require(\n            Storage.load(PERPETUAL_V1_INITIALIZE_SLOT) == 0x0,\n            \"PerpetualV1 already initialized\"\n        );\n        Storage.store(PERPETUAL_V1_INITIALIZE_SLOT, bytes32(uint256(1)));\n\n        _TOKEN_ = token;\n        _ORACLE_ = oracle;\n    }\n}\n",
  "sourcePath": "C:\\Users\\yangt\\yt_try\\smartcontract\\contracts\\protocol\\v1\\PerpetualV1.sol",
  "compiler": {
    "name": "solc",
    "version": "0.8.9+commit.e5eed63a.Emscripten.clang"
  },
  "schemaVersion": "3.4.2",
  "updatedAt": "2021-10-25T07:02:38.193Z",
  "networkType": "ethereum",
  "devdoc": {
    "details": "Main perpetual market implementation contract that inherits from other contracts.",
    "kind": "dev",
    "methods": {
      "deposit(address,uint256)": {
        "details": "Emits LogIndex, LogAccountSettled, and LogDeposit events.",
        "params": {
          "account": "The account for which to credit the deposit.",
          "amount": "the amount of tokens to deposit."
        }
      },
      "getAccountPosition(address,string)": {
        "params": {
          "account": "The address of the account to query the position of.",
          "symbol": "Trading tokens pair name for short."
        },
        "returns": {
          "_0": "The position of the account on the symbol."
        }
      },
      "getAccountQvalue(address)": {
        "params": {
          "account": "The address of the account to query the Qvalue of."
        },
        "returns": {
          "_0": "The Qvalue of the account."
        }
      },
      "getAdmin()": {
        "returns": {
          "_0": "The EIP-1967 proxy admin"
        }
      },
      "getIsGlobalOperator(address)": {
        "params": {
          "operator": "The address of the operator to query the status of."
        },
        "returns": {
          "_0": "True if the address is a global operator, false otherwise."
        }
      },
      "getIsLocalOperator(address,address)": {
        "params": {
          "account": "The account to query the operator for.",
          "operator": "The address of the operator to query the status of."
        },
        "returns": {
          "_0": "True if the operator is a local operator of the account, false otherwise."
        }
      },
      "getOracleContract()": {
        "returns": {
          "_0": "The address of the price oracle contract."
        }
      },
      "getOraclePrice(string)": {
        "details": "Only able to be called by global operators.",
        "params": {
          "symbol": "Trading tokens pair name for short."
        },
        "returns": {
          "_0": "The price returned by the current price oracle."
        }
      },
      "getSymbolArray()": {
        "returns": {
          "_0": "Array of trading tokens pair names for short."
        }
      },
      "getTokenContract()": {
        "returns": {
          "_0": "The address of the ERC20 token."
        }
      },
      "hasAccountPermissions(address,address)": {
        "params": {
          "account": "The account to query.",
          "operator": "The address to query."
        },
        "returns": {
          "_0": "True if the operator has permission to operate the account,                   and false otherwise."
        }
      },
      "initializeV1(address,address)": {
        "details": "Once-only initializer function that replaces the constructor since this contract is  proxied. Uses a non-colliding storage slot to store if this version has been initialized.Can only be called once and can only be called by the admin of this contract.",
        "params": {
          "oracle": "The address of the price oracle contract.",
          "token": "The address of the token to use for margin-deposits."
        }
      },
      "setGlobalOperator(address,bool)": {
        "details": "Must be called by the PerpetualV1 admin. Emits the LogSetGlobalOperator event.",
        "params": {
          "approved": "True if approved, false if disapproved.",
          "operator": "The address for which to enable or disable global operator privileges."
        }
      },
      "setLocalOperator(address,bool)": {
        "details": "Emits the LogSetLocalOperator event.",
        "params": {
          "approved": "True for approval, false for disapproval.",
          "operator": "The account that is approved or disapproved."
        }
      },
      "setOracle(address)": {
        "details": "Must be called by the PerpetualV1 admin. Emits the LogSetOracle event.",
        "params": {
          "oracle": "The address of the new price oracle contract."
        }
      },
      "setToken(address)": {
        "details": "Must be called by the PerpetualV1 admin. Emits the LogSetToken event.",
        "params": {
          "token_address": "The address of the token smart contract."
        }
      },
      "setTokenSymbolInitial(string[])": {
        "details": "Must be called by the PerpetualV1 admin. Emits the LogSetTokenSymbolInitial event.",
        "params": {
          "symbol_array": "array of trading tokens pair names for short."
        }
      },
      "trade(address[],(uint256,uint256,string,address,bytes)[])": {
        "details": "Only able to be called by global operators. Emits the LogIndex event,   one LogAccountSettled event for each account in `accounts`, and the LogTrade event for each trade in `trades`.",
        "params": {
          "accounts": "The sorted list of accounts that are involved in trades.",
          "trades": "The list of trades to execute in-order."
        }
      },
      "withdraw(address,(uint256,bool),address,uint256)": {
        "details": "Only able to be called by global operators. Emits LogIndex, LogAccountSettled, and LogWithdraw events. ",
        "params": {
          "account": "The account for which to debit the withdrawal.",
          "amount": "The amount of tokens to withdraw.",
          "destination": "The address to which the tokens are transferred."
        }
      },
      "withdraw_apply(address,address,uint256)": {
        "details": "Emits LogAccWithdrawRquest events.",
        "params": {
          "account": "The account for which to debit the withdrawal.",
          "amount": "The amount of tokens to withdraw.",
          "destination": "The address to which the tokens are transferred."
        }
      }
    },
    "title": "PerpetualV1",
    "version": 1
  },
  "userdoc": {
    "kind": "user",
    "methods": {
      "deposit(address,uint256)": {
        "notice": "Deposit some amount of margin tokens from the msg.sender into an account."
      },
      "getAccountPosition(address,string)": {
        "notice": "Get the positions of an account, without accounting for changes in the index."
      },
      "getAccountQvalue(address)": {
        "notice": "Get the Q value of an account, without accounting for changes in the index."
      },
      "getIsGlobalOperator(address)": {
        "notice": "Gets the global operator status of an address."
      },
      "getIsLocalOperator(address,address)": {
        "notice": "Gets the local operator status of an operator for a particular account."
      },
      "getOracleContract()": {
        "notice": "Gets the current address of the price oracle contract."
      },
      "getOraclePrice(string)": {
        "notice": "Gets the price returned by the oracle."
      },
      "getSymbolArray()": {
        "notice": "Gets the symbols array."
      },
      "getTokenContract()": {
        "notice": "Gets the address of the ERC20 margin contract used for margin deposits."
      },
      "hasAccountPermissions(address,address)": {
        "notice": "Gets whether an address has permissions to operate an account."
      },
      "setGlobalOperator(address,bool)": {
        "notice": "Add or remove a Global Operator address."
      },
      "setLocalOperator(address,bool)": {
        "notice": "Grants or revokes permission for another account to perform certain actions on behalf  of the sender."
      },
      "setOracle(address)": {
        "notice": "Sets a new price oracle contract."
      },
      "setToken(address)": {
        "notice": "Sets a new token contract."
      },
      "setTokenSymbolInitial(string[])": {
        "notice": "Initialize symbols array for adding new symbols."
      },
      "trade(address[],(uint256,uint256,string,address,bytes)[])": {
        "notice": "Submits one or more trades between any number of accounts."
      },
      "withdraw(address,(uint256,bool),address,uint256)": {
        "notice": "Withdraw some amount of margin tokens from an account to a destination address."
      },
      "withdraw_apply(address,address,uint256)": {
        "notice": "Withdraw apply. some amount of margin tokens from an account to a destination address."
      }
    },
    "notice": "A market for a perpetual contract, a financial derivative which may be traded on margin  and which aims to closely track the spot price of an underlying asset. The underlying asset is  specified via the price oracle which reports its spot price. Tethering of the perpetual market  price is supported by a funding oracle which governs funding payments between longs and shorts.",
    "version": 1
  }
}